:100000000C94A7000C94BC020C94FD010C94C40049
:100010000C94C4000C94C4000C94C4000C94C40050
:100020000C94C4000C94C4000C94C4000C94C40040
:100030000C94C4000C94C4000C94C4000C94C40030
:100040000C94C4000C94C4000C94C4000C94C40020
:100050000C94C40000407A10F35A00A0724E1809A4
:100060000010A5D4E80000E87648170000E40B541F
:10007000020000CA9A3B000000E1F50500008096EE
:100080009800000040420F000000A0860100000020
:10009000102700000000E8030000000064000000DA
:1000A00000000A00000000000100000000002C76A3
:1000B000D888DC674F0823DFC1DFAE59E1B1B796BE
:1000C000E5E3E453C63AE651997696E8E6C284261B
:1000D000EB898C9B62ED407C6FFCEFBC9C9F40F2F7
:1000E000BAA56FA5F490055A2AF75C936B6CF96773
:1000F0006DC11BFCE0E40D47FEF520E6B500D0ED38
:10010000902E0300943577050080841E080000209F
:100110004E0A000000C80C333333330F986E12833D
:100120001141EF8D2114893BE65516CFFEE6DB1811
:10013000D1844B381BF77C1D901DA4BBE4242032D6
:1001400084725E228100C9F124ECA1E53D271124CF
:100150001FBECFE5D8E0DEBFCDBF10E0A0E6B0E027
:10016000E2EDFFE002C005900D92AA3AB107D9F77F
:1001700010E0AAEAB0E001C01D92A53CB107E1F78A
:100180000E9493010C94E7070C94000098B3282F69
:10019000207F9F70292B28BBC098C19A22E0922F04
:1001A0009A95F1F7C198E8ECF0E03197F1F798B340
:1001B0008295807F9F70982B98BBC19A2A95F1F702
:1001C000C19880EA9FE00197F1F7089598B3282F2E
:1001D000207F9F70292B28BBC09AC19A22E0922FC2
:1001E0009A95F1F7C198E8ECF0E03197F1F798B300
:1001F0008295807F9F70982B98BBC19A2A95F1F7C2
:10020000C19880EA9FE00197F1F708958FEF87BBCF
:1002100080ED97E028EC30E0F9013197F1F7019794
:10022000D9F783E30E94C60082E30E94C60088E2F9
:100230000E94C6008CE00E94C60081E00E94C600B9
:1002400080EA9FE00197F1F780E80E94C6000895D8
:10025000DF93CF9300D0CDB7DEB790E8998390ECD1
:100260009A83FE01E60FF11D9181890F0E94C6005D
:100270000F900F90CF91DF9108951F93CF93DF934D
:10028000EC0110E003C00E94E6001F5FFE01E10FD9
:10029000F11D80818823B9F7DF91CF911F910895D7
:1002A00081E00E94C60080EA9FE00197F1F780E8B4
:1002B0000E94C60008958E9A969880E49CE9019762
:1002C000F1F7969A08958E988699FECF869BFECF79
:1002D0008699FECF08958091AA0020E030E040E5A5
:1002E000869BFECF942F9A95F1F7869B03C0880FCB
:1002F000816001C0880F8699FECF2F5F3F4F283065
:10030000310571F78093AA0008951ABA87E886B973
:10031000089580E487B9369A349BFECF349A24B18D
:1003200035B1C9010895EF92FF920F931F938FEF9C
:1003300084BB80E29EE40197F1F78BB7806C8BBFA2
:1003400085B78A6085BF78941ABA87E886B90E9413
:1003500006010E94500180E060E00E94280180E6D2
:1003600090E00E943D0180E061E00E94280188E663
:1003700090E00E943D010E9489019093C400809307
:10038000C300AA2797FDA095BA2FBC01CD010E94FA
:10039000EE0320E030E048EC52E40E94A20420E0AA
:1003A00030EC4FE754EC0E94840320E030E048EC4E
:1003B00052E40E941C037B018C016093AB0070939C
:1003C000AC008093AD009093AE00C801B70120E06F
:1003D00030E040E252E40E94800387FD0AC0C80179
:1003E000B70120E030E040E752E40E949E04181676
:1003F00014F4A89AEACFA898E8CF1F920F920FB6EC
:100400000F9211242F933F934F935F936F937F939A
:100410008F939F93AF93BF93EF93FF930E945001ED
:1004200080E060E00E94280185E790E00E943D01A5
:1004300080E061E00E94280180E890E00E943D0198
:100440000E945B010E9463010E946B018093C200C5
:100450000E946B018093B0000E946B018093C100E9
:100460000E946B018093AF000E946B018093BB00E0
:100470002091C200622F70E02091B000AB01420FCA
:10048000511D9A014091C100240F311D4091AF00D0
:10049000240F311D90E02817390739F080E060E023
:1004A0000E94280188E890E04BC0CB016CEB70E023
:1004B0004AE050E00E9431058BE060E00E94280194
:1004C0008CEB90E00E943D018EE890E00E943D019F
:1004D0008091B00090E06CEB70E04AE050E00E9448
:1004E00031058CEB90E00E943D0180E990E00E9494
:1004F0003D018091C10090E06CEB70E04AE050E07B
:100500000E94310586E061E00E9428018CEB90E0BA
:100510000E943D018EE890E00E943D018091AF0075
:1005200090E06CEB70E04AE050E00E9431058CEB0B
:1005300090E00E943D018FED0E94E60082E990E08C
:100540000E943D0188E893E128EC30E0F901319701
:10055000F1F70197D9F7FF91EF91BF91AF919F917B
:100560008F917F916F915F914F913F912F910F905C
:100570000FBE0F901F9018951F920F920FB60F92FB
:100580001124EF92FF920F931F932F933F934F935A
:100590005F936F937F938F939F93AF93BF93EF93EB
:1005A000FF930E94500180E060E00E94280185E9ED
:1005B00090E00E943D016091AB007091AC00809191
:1005C000AD009091AE0021EBE22E20E0F22E43E050
:1005D00022E087010E940505C70165EA70E00E94DC
:1005E000260580E061E00E942801C7010E943D01CC
:1005F0008AE0F70111928A95E9F788E893E128ECFF
:1006000030E0F9013197F1F70197D9F7FF91EF91B8
:10061000BF91AF919F918F917F916F915F914F911A
:100620003F912F911F910F91FF90EF900F900FBE70
:100630000F901F9018955058BB27AA270ED044C181
:1006400035D130F03AD120F031F49F3F11F41EF44F
:100650002AC10EF4E095E7FB20C1E92F46D180F3D3
:10066000BA17620773078407950718F071F49EF5AF
:100670005EC10EF4E0950B2EBA2FA02D0B01B9012F
:1006800090010C01CA01A0011124FF27591B99F008
:10069000593F50F4503E68F11A16F040A22F232F14
:1006A000342F4427585FF3CF469537952795A79564
:1006B000F0405395C9F77EF41F16BA0B620B730B0B
:1006C000840BBAF09150A1F0FF0FBB1F661F771F7C
:1006D000881FC2F70EC0BA0F621F731F841F48F431
:1006E000879577956795B795F7959E3F08F0B3CFB7
:1006F0009395880F08F09927EE0F979587950895A1
:10070000A8D008F481E008950CD0DEC0D6D040F027
:10071000CDD030F021F45F3F19F0BFC0511108C1B6
:10072000C2C0E3D098F39923C9F35523B1F3951BC5
:10073000550BBB27AA2762177307840738F09F5F02
:100740005F4F220F331F441FAA1FA9F333D00E2E71
:100750003AF0E0E830D091505040E695001CCAF7DE
:1007600029D0FE2F27D0660F771F881FBB1F2617A3
:1007700037074807AB07B0E809F0BB0B802DBF0176
:10078000FF2793585F4F2AF09E3F510568F085C0C0
:10079000CFC05F3FECF3983EDCF386957795679585
:1007A000B795F7959F5FC9F7880F911D9695879527
:1007B00097F90895E1E0660F771F881FBB1F621746
:1007C00073078407BA0720F0621B730B840BBA0B04
:1007D000EE1F88F7E0950895E89409C097FB3EF472
:1007E00090958095709561957F4F8F4F9F4F99237E
:1007F000A9F0F92F96E9BB279395F69587957795FC
:100800006795B795F111F8CFFAF4BB0F11F460FFBB
:100810001BC06F5F7F4F8F4F9F4F16C0882311F013
:1008200096E911C0772321F09EE8872F762F05C027
:10083000662371F096E8862F70E060E02AF09A95C2
:10084000660F771F881FDAF7880F9695879597F9B7
:100850000895990F0008550FAA0BE0E8FEEF161651
:100860001706E807F907C0F012161306E407F507A4
:1008700098F0621B730B840B950B39F40A2661F018
:10088000232B242B252B21F408950A2609F4A140BB
:10089000A6958FEF811D811D089597F99F6780E8C8
:1008A00070E060E008959FEF80EC089500240A94C2
:1008B0001616170618060906089500240A9412163B
:1008C0001306140605060895092E0394000C11F46E
:1008D000882352F0BB0F40F4BF2B11F460FF04C01B
:1008E0006F5F7F4F8F4F9F4F089557FD9058440F74
:1008F000551F59F05F3F71F04795880F97FB991F7F
:1009000061F09F3F79F0879508951216130614063B
:10091000551FF2CF4695F1DF08C0161617061806C8
:10092000991FF1CF86957105610508940895E894A3
:10093000BB2766277727CB0197F908958ADF08F44C
:100940008FEF08950BD0C0CFB1DF28F0B6DF18F0DD
:10095000952309F0A2CFA7CF1124EACFC6DFA0F3D9
:10096000959FD1F3950F50E0551F629FF001729F44
:10097000BB27F00DB11D639FAA27F00DB11DAA1F63
:10098000649F6627B00DA11D661F829F2227B00DB0
:10099000A11D621F739FB00DA11D621F839FA00D3B
:1009A000611D221F749F3327A00D611D231F849F8B
:1009B000600D211D822F762F6A2F11249F575040E2
:1009C0008AF0E1F088234AF0EE0FFF1FBB1F661F7D
:1009D000771F881F91505040A9F79E3F510570F036
:1009E0005CCFA6CF5F3FECF3983EDCF3869577951E
:1009F0006795B795F795E7959F5FC1F7FE2B880F31
:100A0000911D9695879597F90895EF92FF920F9310
:100A10001F93F22FF02E47FD02C0E4E001C0E4E195
:100A2000242F332727FD309537FF03C030952195BC
:100A30003F4F4F2D512F0F2FEE2E0E9452058F2D1D
:100A4000912F1F910F91FF90EF900895FB01DC0112
:100A50000D900020E9F7119701900D920020E1F729
:100A60000895FB019F01E8944230C4F04532B4F48C
:100A70004A3029F497FB1EF4909581959F4F642F7F
:100A800077270E949C07805D8A330CF0895D8193F3
:100A9000CB010097A1F716F45DE251931082C901D2
:100AA0000C948C07A9E0B0E0E8E5F5E00C94B407FD
:100AB0006A01122FA02EBE2C2BE3201718F42CE372
:100AC000922E02C0902E9394AE014F5F5F4F27E0AD
:100AD000092D0E94B406BC018981E82EFF24C701BC
:100AE00089709070019711F4ADE209C0B1FE02C0A7
:100AF000ABE205C0B0FC02C0A0E001C0A0E2E3FE92
:100B00003BC0AA2311F423E001C024E0211710F018
:100B100020E002C0121B212FEB2CB4FE02C0322FAA
:100B20000AC0F601322F80E202C081933150332394
:100B3000E1F7C20ED11CAA2319F0F601A1936F01AF
:100B4000F6013196E2FE05C09EE4D6019C9381E455
:100B500004C09EE6D6019C9381E611968C93918306
:100B60003296DF01832F90E202C09D93815088234B
:100B7000E1F7E30FF11D40C0E2FE42C0AA2311F4E9
:100B800023E001C024E0211710F020E002C0121B76
:100B9000212FEB2CB4FE02C0922F0AC0F601922F37
:100BA00080E202C0819391509923E1F7C20ED11CDB
:100BB000AA2319F0F601A1936F01F6013196E2FE26
:100BC00008C089E4D6018C938EE411968C9386E458
:100BD00007C089E6D6018C938EE611968C9386E643
:100BE00081833296DF01892F20E202C02D9381504C
:100BF0008823E1F7E90FF11D10822EEF3FEFAFC020
:100C0000161617061CF041E050E003C0AB014F5F21
:100C10005F4FAA2019F480E090E003C08A2D90E095
:100C2000019620E030E0AA2311F021E030E0240F0B
:100C3000351F280F391F812F90E02817390714F02E
:100C400020E002C0121B212F4B2D50E0CA01807101
:100C50009070B4FC0DC0B3FC0BC0F601322F40E223
:100C600002C0419331503323E1F7C20ED11C01C0C1
:100C7000322FAA2319F0F601A1936F01892B11F0ED
:100C8000132F0AC0F601132F80E302C08193115085
:100C90001123E1F7C30ED11C092D060FBA8090E194
:100CA000892E912C8E209F20E4FE04C0F1E3BF1614
:100CB00009F40150101614F001E003C0093008F0E7
:100CC00008E09B0177FF02C020E030E0CB010196F5
:100CD000821B930BFE013196E80FF91F8EE2F82E6E
:100CE0003B01601A71088A2D90E044275527481B64
:100CF000590B8FEF2F3F380719F4D601FD926D0184
:100D0000621773072CF06216730614F4808101C019
:100D100080E32150304031962417350724F0D60166
:100D20008D936D01E6CF2617370749F4B5E3BB1560
:100D300028F0BB1621F48114910409F481E3F60133
:100D40008193D601812F90E202C09C93815011962D
:100D50008823D9F7E10FF11D108220E030E0C901AE
:100D60002996EEE00C94D007283008F027E03327CE
:100D7000DA01990F311D87FD9160009661057105BB
:100D800039F432602E5F3D9330E32A95E1F7089500
:100D90009F3F30F080387105610509F03C5F3C5F92
:100DA0003D93913008F08068911DDF93CF931F939E
:100DB0000F93FF92EF92192F987F9695E92F9695B2
:100DC0009695E90FFF27E255FF4F99273327EE2429
:100DD000FF24A701E70105900894079428F4360F33
:100DE000E71EF81E491F511D660F771F881F991FA8
:100DF0000694A1F70590079428F4E70EF81E491F02
:100E0000561FC11D770F881F991F661F0694A1F7F3
:100E10000590079428F4F80E491F561FC71FD11DCF
:100E2000880F991F661F771F0694A1F705900794F6
:100E300020F4490F561FC71FD81F990F661F771F31
:100E4000881F0694A9F784911095177041F0D695E4
:100E5000C79557954795F794E7941A95C1F7E4E538
:100E6000F0E06894159015913591659195910590F4
:100E70007FE27395E118F10A430B560BC90BD009B9
:100E8000C0F7E10CF11E431F561FC91FD01D7EF491
:100E9000703311F48A95E6CFE894015030F0080FD2
:100EA0000AF40027021708F4202F2395022F7A3323
:100EB00028F079E37D932A95E9F710C07D932A9570
:100EC00089F6069497956795379517951794E118C5
:100ED000F10A430B560BC90BD00998F023957E916C
:100EE00073957A3308F070E37C932013B8F77E9102
:100EF00070617D9330F0839571E37D9370E32A9563
:100F0000E1F71124EF90FF900F911F91CF91DF91A6
:100F1000992787FD90950895DC01FC01672F719159
:100F20007723E1F7329704C07C916D9370836291CF
:100F3000AE17BF07C8F30895AA1BBB1B51E107C03A
:100F4000AA1FBB1FA617B70710F0A61BB70B881F59
:100F5000991F5A95A9F780959095BC01CD010895E8
:100F60002F923F924F925F926F927F928F929F92B9
:100F7000AF92BF92CF92DF92EF92FF920F931F93A7
:100F8000CF93DF93CDB7DEB7CA1BDB0B0FB6F89458
:100F9000DEBF0FBECDBF09942A88398848885F8498
:100FA0006E847D848C849B84AA84B984C884DF8009
:100FB000EE80FD800C811B81AA81B981CE0FD11DED
:100FC0000FB6F894DEBF0FBECDBFED010895F894C3
:020FD000FFCF51
:100FD200436F6D706F737400202020496E646963E3
:100FE20061746F720048756D6964697479203D009F
:100FF20054656D70203D20004572726F72002E00A4
:101002002500432000536F696C204D6F697374751E
:0A10120072653A200025202020001E
:00000001FF
